{"abi":[{"type":"constructor","inputs":[{"name":"asset_","type":"address","internalType":"address"},{"name":"curator_","type":"address","internalType":"address"},{"name":"name_","type":"string","internalType":"string"},{"name":"symbol_","type":"string","internalType":"string"}],"stateMutability":"nonpayable"},{"type":"function","name":"allowance","inputs":[{"name":"owner","type":"address","internalType":"address"},{"name":"spender","type":"address","internalType":"address"}],"outputs":[{"name":"","type":"uint256","internalType":"uint256"}],"stateMutability":"view"},{"type":"function","name":"approve","inputs":[{"name":"spender","type":"address","internalType":"address"},{"name":"value","type":"uint256","internalType":"uint256"}],"outputs":[{"name":"","type":"bool","internalType":"bool"}],"stateMutability":"nonpayable"},{"type":"function","name":"asset","inputs":[],"outputs":[{"name":"","type":"address","internalType":"contract IERC20"}],"stateMutability":"view"},{"type":"function","name":"balanceOf","inputs":[{"name":"account","type":"address","internalType":"address"}],"outputs":[{"name":"","type":"uint256","internalType":"uint256"}],"stateMutability":"view"},{"type":"function","name":"claimDeposit","inputs":[{"name":"receiver","type":"address","internalType":"address"},{"name":"controller","type":"address","internalType":"address"}],"outputs":[],"stateMutability":"nonpayable"},{"type":"function","name":"claimRedeem","inputs":[{"name":"receiver","type":"address","internalType":"address"},{"name":"controller","type":"address","internalType":"address"}],"outputs":[],"stateMutability":"nonpayable"},{"type":"function","name":"claimableDepositRequest","inputs":[{"name":"","type":"uint256","internalType":"uint256"},{"name":"controller","type":"address","internalType":"address"}],"outputs":[{"name":"assets_","type":"uint256","internalType":"uint256"},{"name":"shares_","type":"uint256","internalType":"uint256"}],"stateMutability":"view"},{"type":"function","name":"claimableRedeemRequest","inputs":[{"name":"","type":"uint256","internalType":"uint256"},{"name":"controller","type":"address","internalType":"address"}],"outputs":[{"name":"assets_","type":"uint256","internalType":"uint256"},{"name":"shares_","type":"uint256","internalType":"uint256"}],"stateMutability":"view"},{"type":"function","name":"curator","inputs":[],"outputs":[{"name":"","type":"address","internalType":"address"}],"stateMutability":"view"},{"type":"function","name":"decimals","inputs":[],"outputs":[{"name":"","type":"uint8","internalType":"uint8"}],"stateMutability":"view"},{"type":"function","name":"fulfillDeposit","inputs":[{"name":"controller","type":"address","internalType":"address"},{"name":"shares_","type":"uint256","internalType":"uint256"}],"outputs":[],"stateMutability":"nonpayable"},{"type":"function","name":"fulfillRedeem","inputs":[{"name":"controller","type":"address","internalType":"address"},{"name":"assets_","type":"uint256","internalType":"uint256"}],"outputs":[],"stateMutability":"nonpayable"},{"type":"function","name":"isOperator","inputs":[{"name":"controller","type":"address","internalType":"address"},{"name":"operator","type":"address","internalType":"address"}],"outputs":[{"name":"","type":"bool","internalType":"bool"}],"stateMutability":"view"},{"type":"function","name":"name","inputs":[],"outputs":[{"name":"","type":"string","internalType":"string"}],"stateMutability":"view"},{"type":"function","name":"pendingDepositRequest","inputs":[{"name":"","type":"uint256","internalType":"uint256"},{"name":"controller","type":"address","internalType":"address"}],"outputs":[{"name":"assets_","type":"uint256","internalType":"uint256"},{"name":"shares_","type":"uint256","internalType":"uint256"}],"stateMutability":"view"},{"type":"function","name":"pendingRedeemRequest","inputs":[{"name":"","type":"uint256","internalType":"uint256"},{"name":"controller","type":"address","internalType":"address"}],"outputs":[{"name":"assets_","type":"uint256","internalType":"uint256"},{"name":"shares_","type":"uint256","internalType":"uint256"}],"stateMutability":"view"},{"type":"function","name":"requestDeposit","inputs":[{"name":"assets_","type":"uint256","internalType":"uint256"},{"name":"controller","type":"address","internalType":"address"},{"name":"owner","type":"address","internalType":"address"}],"outputs":[],"stateMutability":"nonpayable"},{"type":"function","name":"requestRedeem","inputs":[{"name":"shares_","type":"uint256","internalType":"uint256"},{"name":"controller","type":"address","internalType":"address"},{"name":"owner","type":"address","internalType":"address"}],"outputs":[],"stateMutability":"nonpayable"},{"type":"function","name":"requests","inputs":[{"name":"controller","type":"address","internalType":"address"}],"outputs":[{"name":"kind","type":"uint8","internalType":"enum RequestKind"},{"name":"status","type":"uint8","internalType":"enum RequestStatus"},{"name":"assets","type":"uint256","internalType":"uint256"},{"name":"shares","type":"uint256","internalType":"uint256"},{"name":"requestId","type":"uint256","internalType":"uint256"}],"stateMutability":"view"},{"type":"function","name":"setOperator","inputs":[{"name":"operator","type":"address","internalType":"address"},{"name":"approved","type":"bool","internalType":"bool"}],"outputs":[],"stateMutability":"nonpayable"},{"type":"function","name":"symbol","inputs":[],"outputs":[{"name":"","type":"string","internalType":"string"}],"stateMutability":"view"},{"type":"function","name":"totalSupply","inputs":[],"outputs":[{"name":"","type":"uint256","internalType":"uint256"}],"stateMutability":"view"},{"type":"function","name":"transfer","inputs":[{"name":"to","type":"address","internalType":"address"},{"name":"value","type":"uint256","internalType":"uint256"}],"outputs":[{"name":"","type":"bool","internalType":"bool"}],"stateMutability":"nonpayable"},{"type":"function","name":"transferFrom","inputs":[{"name":"from","type":"address","internalType":"address"},{"name":"to","type":"address","internalType":"address"},{"name":"value","type":"uint256","internalType":"uint256"}],"outputs":[{"name":"","type":"bool","internalType":"bool"}],"stateMutability":"nonpayable"},{"type":"event","name":"Approval","inputs":[{"name":"owner","type":"address","indexed":true,"internalType":"address"},{"name":"spender","type":"address","indexed":true,"internalType":"address"},{"name":"value","type":"uint256","indexed":false,"internalType":"uint256"}],"anonymous":false},{"type":"event","name":"DepositClaimed","inputs":[{"name":"internalRequestId","type":"uint256","indexed":true,"internalType":"uint256"},{"name":"controller","type":"address","indexed":true,"internalType":"address"},{"name":"receiver","type":"address","indexed":true,"internalType":"address"},{"name":"shares","type":"uint256","indexed":false,"internalType":"uint256"}],"anonymous":false},{"type":"event","name":"DepositFulfilled","inputs":[{"name":"internalRequestId","type":"uint256","indexed":true,"internalType":"uint256"},{"name":"controller","type":"address","indexed":true,"internalType":"address"},{"name":"assets","type":"uint256","indexed":false,"internalType":"uint256"},{"name":"shares","type":"uint256","indexed":false,"internalType":"uint256"}],"anonymous":false},{"type":"event","name":"DepositRequest","inputs":[{"name":"internalRequestId","type":"uint256","indexed":true,"internalType":"uint256"},{"name":"controller","type":"address","indexed":true,"internalType":"address"},{"name":"owner","type":"address","indexed":true,"internalType":"address"},{"name":"assets","type":"uint256","indexed":false,"internalType":"uint256"}],"anonymous":false},{"type":"event","name":"RedeemClaimed","inputs":[{"name":"internalRequestId","type":"uint256","indexed":true,"internalType":"uint256"},{"name":"controller","type":"address","indexed":true,"internalType":"address"},{"name":"receiver","type":"address","indexed":true,"internalType":"address"},{"name":"assets","type":"uint256","indexed":false,"internalType":"uint256"}],"anonymous":false},{"type":"event","name":"RedeemFulfilled","inputs":[{"name":"internalRequestId","type":"uint256","indexed":true,"internalType":"uint256"},{"name":"controller","type":"address","indexed":true,"internalType":"address"},{"name":"shares","type":"uint256","indexed":false,"internalType":"uint256"},{"name":"assets","type":"uint256","indexed":false,"internalType":"uint256"}],"anonymous":false},{"type":"event","name":"RedeemRequest","inputs":[{"name":"internalRequestId","type":"uint256","indexed":true,"internalType":"uint256"},{"name":"controller","type":"address","indexed":true,"internalType":"address"},{"name":"owner","type":"address","indexed":true,"internalType":"address"},{"name":"shares","type":"uint256","indexed":false,"internalType":"uint256"}],"anonymous":false},{"type":"event","name":"Transfer","inputs":[{"name":"from","type":"address","indexed":true,"internalType":"address"},{"name":"to","type":"address","indexed":true,"internalType":"address"},{"name":"value","type":"uint256","indexed":false,"internalType":"uint256"}],"anonymous":false},{"type":"error","name":"ActiveRequest","inputs":[]},{"type":"error","name":"ERC20InsufficientAllowance","inputs":[{"name":"spender","type":"address","internalType":"address"},{"name":"allowance","type":"uint256","internalType":"uint256"},{"name":"needed","type":"uint256","internalType":"uint256"}]},{"type":"error","name":"ERC20InsufficientBalance","inputs":[{"name":"sender","type":"address","internalType":"address"},{"name":"balance","type":"uint256","internalType":"uint256"},{"name":"needed","type":"uint256","internalType":"uint256"}]},{"type":"error","name":"ERC20InvalidApprover","inputs":[{"name":"approver","type":"address","internalType":"address"}]},{"type":"error","name":"ERC20InvalidReceiver","inputs":[{"name":"receiver","type":"address","internalType":"address"}]},{"type":"error","name":"ERC20InvalidSender","inputs":[{"name":"sender","type":"address","internalType":"address"}]},{"type":"error","name":"ERC20InvalidSpender","inputs":[{"name":"spender","type":"address","internalType":"address"}]},{"type":"error","name":"InvalidAddress","inputs":[]},{"type":"error","name":"InvalidRequestKind","inputs":[]},{"type":"error","name":"InvalidRequestStatus","inputs":[]},{"type":"error","name":"NoPendingRequest","inputs":[]},{"type":"error","name":"NotControllerOrOperator","inputs":[]},{"type":"error","name":"NotCurator","inputs":[]},{"type":"error","name":"NotOwner","inputs":[]},{"type":"error","name":"SafeERC20FailedOperation","inputs":[{"name":"token","type":"address","internalType":"address"}]}],"bytecode":{"object":"0x60c060405234801561000f575f80fd5b506040516133fc3803806133fc8339818101604052810190610031919061026d565b818181600390816100429190610516565b5080600490816100529190610516565b5050508373ffffffffffffffffffffffffffffffffffffffff1660808173ffffffffffffffffffffffffffffffffffffffff16815250508273ffffffffffffffffffffffffffffffffffffffff1660a08173ffffffffffffffffffffffffffffffffffffffff1681525050505050506105e5565b5f604051905090565b5f80fd5b5f80fd5b5f73ffffffffffffffffffffffffffffffffffffffff82169050919050565b5f610100826100d7565b9050919050565b610110816100f6565b811461011a575f80fd5b50565b5f8151905061012b81610107565b92915050565b5f80fd5b5f80fd5b5f601f19601f8301169050919050565b7f4e487b71000000000000000000000000000000000000000000000000000000005f52604160045260245ffd5b61017f82610139565b810181811067ffffffffffffffff8211171561019e5761019d610149565b5b80604052505050565b5f6101b06100c6565b90506101bc8282610176565b919050565b5f67ffffffffffffffff8211156101db576101da610149565b5b6101e482610139565b9050602081019050919050565b8281835e5f83830152505050565b5f61021161020c846101c1565b6101a7565b90508281526020810184848401111561022d5761022c610135565b5b6102388482856101f1565b509392505050565b5f82601f83011261025457610253610131565b5b81516102648482602086016101ff565b91505092915050565b5f805f8060808587031215610285576102846100cf565b5b5f6102928782880161011d565b94505060206102a38782880161011d565b935050604085015167ffffffffffffffff8111156102c4576102c36100d3565b5b6102d087828801610240565b925050606085015167ffffffffffffffff8111156102f1576102f06100d3565b5b6102fd87828801610240565b91505092959194509250565b5f81519050919050565b7f4e487b71000000000000000000000000000000000000000000000000000000005f52602260045260245ffd5b5f600282049050600182168061035757607f821691505b60208210810361036a57610369610313565b5b50919050565b5f819050815f5260205f209050919050565b5f6020601f8301049050919050565b5f82821b905092915050565b5f600883026103cc7fffffffffffffffffffffffffffffffffffffffffffffffffffffffffffffffff82610391565b6103d68683610391565b95508019841693508086168417925050509392505050565b5f819050919050565b5f819050919050565b5f61041a610415610410846103ee565b6103f7565b6103ee565b9050919050565b5f819050919050565b61043383610400565b61044761043f82610421565b84845461039d565b825550505050565b5f90565b61045b61044f565b61046681848461042a565b505050565b5b818110156104895761047e5f82610453565b60018101905061046c565b5050565b601f8211156104ce5761049f81610370565b6104a884610382565b810160208510156104b7578190505b6104cb6104c385610382565b83018261046b565b50505b505050565b5f82821c905092915050565b5f6104ee5f19846008026104d3565b1980831691505092915050565b5f61050683836104df565b9150826002028217905092915050565b61051f82610309565b67ffffffffffffffff81111561053857610537610149565b5b6105428254610340565b61054d82828561048d565b5f60209050601f83116001811461057e575f841561056c578287015190505b61057685826104fb565b8655506105dd565b601f19841661058c86610370565b5f5b828110156105b35784890151825560018201915060208501945060208101905061058e565b868310156105d057848901516105cc601f8916826104df565b8355505b6001600288020188555050505b505050505050565b60805160a051612dda6106225f395f8181610a6901528181610d7001526119b201525f818161081901528181610c7401526114ce0152612dda5ff3fe608060405234801561000f575f80fd5b5060043610610156575f3560e01c806374adad1d116100c1578063b6363cf21161007a578063b6363cf2146103ee578063dd62ed3e1461041e578063e66f53b71461044e578063eaed1d071461046c578063ee4757d71461049d578063f5a23d8d146104b957610156565b806374adad1d146103035780637d41c86e1461033757806385b77f451461035357806395d89b411461036f578063995ea21a1461038d578063a9059cbb146103be57610156565b8063313ce56711610113578063313ce5671461024357806336ac15ef1461026157806338d52e0f1461027d578063558a72971461029b57806370a08231146102b7578063746cd26c146102e757610156565b806306fdde031461015a578063095ea7b31461017857806318160ddd146101a857806318292350146101c657806323b872dd146101e257806326c6f96c14610212575b5f80fd5b6101626104ea565b60405161016f9190612771565b60405180910390f35b610192600480360381019061018d9190612822565b61057a565b60405161019f919061287a565b60405180910390f35b6101b061059c565b6040516101bd91906128a2565b60405180910390f35b6101e060048036038101906101db91906128bb565b6105a5565b005b6101fc60048036038101906101f791906128f9565b6108cb565b604051610209919061287a565b60405180910390f35b61022c60048036038101906102279190612949565b6108f9565b60405161023a929190612987565b60405180910390f35b61024b610a5f565b60405161025891906129c9565b60405180910390f35b61027b60048036038101906102769190612822565b610a67565b005b610285610c72565b6040516102929190612a3d565b60405180910390f35b6102b560048036038101906102b09190612a80565b610c96565b005b6102d160048036038101906102cc9190612abe565b610d29565b6040516102de91906128a2565b60405180910390f35b61030160048036038101906102fc9190612822565b610d6e565b005b61031d60048036038101906103189190612abe565b610f7a565b60405161032e959493929190612ba2565b60405180910390f35b610351600480360381019061034c9190612bf3565b610fc4565b005b61036d60048036038101906103689190612bf3565b611305565b005b610377611689565b6040516103849190612771565b60405180910390f35b6103a760048036038101906103a29190612949565b611719565b6040516103b5929190612987565b60405180910390f35b6103d860048036038101906103d39190612822565b61187e565b6040516103e5919061287a565b60405180910390f35b610408600480360381019061040391906128bb565b6118a0565b604051610415919061287a565b60405180910390f35b610438600480360381019061043391906128bb565b61192e565b60405161044591906128a2565b60405180910390f35b6104566119b0565b6040516104639190612c52565b60405180910390f35b61048660048036038101906104819190612949565b6119d4565b604051610494929190612987565b60405180910390f35b6104b760048036038101906104b291906128bb565b611b38565b005b6104d360048036038101906104ce9190612949565b611e1e565b6040516104e1929190612987565b60405180910390f35b6060600380546104f990612c98565b80601f016020809104026020016040519081016040528092919081815260200182805461052590612c98565b80156105705780601f1061054757610100808354040283529160200191610570565b820191905f5260205f20905b81548152906001019060200180831161055357829003601f168201915b5050505050905090565b5f80610584611f83565b9050610591818585611f8a565b600191505092915050565b5f600254905090565b808073ffffffffffffffffffffffffffffffffffffffff163373ffffffffffffffffffffffffffffffffffffffff1614158015610664575060075f8273ffffffffffffffffffffffffffffffffffffffff1673ffffffffffffffffffffffffffffffffffffffff1681526020019081526020015f205f3373ffffffffffffffffffffffffffffffffffffffff1673ffffffffffffffffffffffffffffffffffffffff1681526020019081526020015f205f9054906101000a900460ff16155b1561069b576040517fb8c8b79e00000000000000000000000000000000000000000000000000000000815260040160405180910390fd5b5f60065f8473ffffffffffffffffffffffffffffffffffffffff1673ffffffffffffffffffffffffffffffffffffffff1681526020019081526020015f2090506002808111156106ee576106ed612ae9565b5b815f015f9054906101000a900460ff1660028111156107105761070f612ae9565b5b141580610751575060028081111561072b5761072a612ae9565b5b815f0160019054906101000a900460ff16600281111561074e5761074d612ae9565b5b14155b15610788576040517f2efb6afd00000000000000000000000000000000000000000000000000000000815260040160405180910390fd5b5f816003015490505f8260010154905060065f8673ffffffffffffffffffffffffffffffffffffffff1673ffffffffffffffffffffffffffffffffffffffff1681526020019081526020015f205f8082015f6101000a81549060ff02191690555f820160016101000a81549060ff0219169055600182015f9055600282015f9055600382015f9055505061085d86827f000000000000000000000000000000000000000000000000000000000000000073ffffffffffffffffffffffffffffffffffffffff16611f9c9092919063ffffffff16565b8573ffffffffffffffffffffffffffffffffffffffff168573ffffffffffffffffffffffffffffffffffffffff16837f8c7a0df37446d7acfcfb26676971790c229668a2990a1e25ead20e2756f50c13846040516108bb91906128a2565b60405180910390a4505050505050565b5f806108d5611f83565b90506108e2858285611fef565b6108ed858585612082565b60019150509392505050565b5f805f60065f8573ffffffffffffffffffffffffffffffffffffffff1673ffffffffffffffffffffffffffffffffffffffff1681526020019081526020015f206040518060a00160405290815f82015f9054906101000a900460ff16600281111561096757610966612ae9565b5b600281111561097957610978612ae9565b5b81526020015f820160019054906101000a900460ff1660028111156109a1576109a0612ae9565b5b60028111156109b3576109b2612ae9565b5b815260200160018201548152602001600282015481526020016003820154815250509050600160028111156109eb576109ea612ae9565b5b815f01516002811115610a0157610a00612ae9565b5b141580610a37575060016002811115610a1d57610a1c612ae9565b5b81602001516002811115610a3457610a33612ae9565b5b14155b15610a48575f809250925050610a58565b8060400151816060015192509250505b9250929050565b5f6012905090565b7f000000000000000000000000000000000000000000000000000000000000000073ffffffffffffffffffffffffffffffffffffffff163373ffffffffffffffffffffffffffffffffffffffff1614610aec576040517f56b381a500000000000000000000000000000000000000000000000000000000815260040160405180910390fd5b5f60065f8473ffffffffffffffffffffffffffffffffffffffff1673ffffffffffffffffffffffffffffffffffffffff1681526020019081526020015f209050600280811115610b3f57610b3e612ae9565b5b815f015f9054906101000a900460ff166002811115610b6157610b60612ae9565b5b141580610ba3575060016002811115610b7d57610b7c612ae9565b5b815f0160019054906101000a900460ff166002811115610ba057610b9f612ae9565b5b14155b15610bda576040517fcc2c06e800000000000000000000000000000000000000000000000000000000815260040160405180910390fd5b5f816003015490506002825f0160016101000a81548160ff02191690836002811115610c0957610c08612ae9565b5b02179055508282600101819055508373ffffffffffffffffffffffffffffffffffffffff16817fb7783cce33c085ad595f08f1f7e0809c07e6946d75fce8ca47731b03c0965c84846002015486604051610c64929190612987565b60405180910390a350505050565b7f000000000000000000000000000000000000000000000000000000000000000081565b8060075f3373ffffffffffffffffffffffffffffffffffffffff1673ffffffffffffffffffffffffffffffffffffffff1681526020019081526020015f205f8473ffffffffffffffffffffffffffffffffffffffff1673ffffffffffffffffffffffffffffffffffffffff1681526020019081526020015f205f6101000a81548160ff0219169083151502179055505050565b5f805f8373ffffffffffffffffffffffffffffffffffffffff1673ffffffffffffffffffffffffffffffffffffffff1681526020019081526020015f20549050919050565b7f000000000000000000000000000000000000000000000000000000000000000073ffffffffffffffffffffffffffffffffffffffff163373ffffffffffffffffffffffffffffffffffffffff1614610df3576040517f56b381a500000000000000000000000000000000000000000000000000000000815260040160405180910390fd5b5f60065f8473ffffffffffffffffffffffffffffffffffffffff1673ffffffffffffffffffffffffffffffffffffffff1681526020019081526020015f20905060016002811115610e4757610e46612ae9565b5b815f015f9054906101000a900460ff166002811115610e6957610e68612ae9565b5b141580610eab575060016002811115610e8557610e84612ae9565b5b815f0160019054906101000a900460ff166002811115610ea857610ea7612ae9565b5b14155b15610ee2576040517fcc2c06e800000000000000000000000000000000000000000000000000000000815260040160405180910390fd5b5f816003015490506002825f0160016101000a81548160ff02191690836002811115610f1157610f10612ae9565b5b02179055508282600201819055508373ffffffffffffffffffffffffffffffffffffffff16817fe1250354152f52a7d5973900e85e2cc2bbfabc23e93c237c00c41660235471d3846001015486604051610f6c929190612987565b60405180910390a350505050565b6006602052805f5260405f205f91509050805f015f9054906101000a900460ff1690805f0160019054906101000a900460ff16908060010154908060020154908060030154905085565b5f73ffffffffffffffffffffffffffffffffffffffff168273ffffffffffffffffffffffffffffffffffffffff16148061102957505f73ffffffffffffffffffffffffffffffffffffffff168173ffffffffffffffffffffffffffffffffffffffff16145b15611060576040517fe6c4247b00000000000000000000000000000000000000000000000000000000815260040160405180910390fd5b5f600281111561107357611072612ae9565b5b60065f8473ffffffffffffffffffffffffffffffffffffffff1673ffffffffffffffffffffffffffffffffffffffff1681526020019081526020015f205f0160019054906101000a900460ff1660028111156110d2576110d1612ae9565b5b14611109576040517f1b4e72cb00000000000000000000000000000000000000000000000000000000815260040160405180910390fd5b8073ffffffffffffffffffffffffffffffffffffffff163373ffffffffffffffffffffffffffffffffffffffff161461116e576040517f30cd747100000000000000000000000000000000000000000000000000000000815260040160405180910390fd5b60055f81548092919061118090612cf5565b9190505550611190813085612082565b6040518060a001604052806002808111156111ae576111ad612ae9565b5b8152602001600160028111156111c7576111c6612ae9565b5b81526020015f815260200184815260200160055481525060065f8473ffffffffffffffffffffffffffffffffffffffff1673ffffffffffffffffffffffffffffffffffffffff1681526020019081526020015f205f820151815f015f6101000a81548160ff0219169083600281111561124357611242612ae9565b5b02179055506020820151815f0160016101000a81548160ff0219169083600281111561127257611271612ae9565b5b02179055506040820151816001015560608201518160020155608082015181600301559050508073ffffffffffffffffffffffffffffffffffffffff168273ffffffffffffffffffffffffffffffffffffffff166005547f809962ac0964dbdbfe3d2cfedcec577e45535915536774867905dc4ae0a31bc9866040516112f891906128a2565b60405180910390a4505050565b5f73ffffffffffffffffffffffffffffffffffffffff168273ffffffffffffffffffffffffffffffffffffffff16148061136a57505f73ffffffffffffffffffffffffffffffffffffffff168173ffffffffffffffffffffffffffffffffffffffff16145b156113a1576040517fe6c4247b00000000000000000000000000000000000000000000000000000000815260040160405180910390fd5b5f60028111156113b4576113b3612ae9565b5b60065f8473ffffffffffffffffffffffffffffffffffffffff1673ffffffffffffffffffffffffffffffffffffffff1681526020019081526020015f205f0160019054906101000a900460ff16600281111561141357611412612ae9565b5b1461144a576040517f1b4e72cb00000000000000000000000000000000000000000000000000000000815260040160405180910390fd5b8073ffffffffffffffffffffffffffffffffffffffff163373ffffffffffffffffffffffffffffffffffffffff16146114af576040517f30cd747100000000000000000000000000000000000000000000000000000000815260040160405180910390fd5b60055f8154809291906114c190612cf5565b91905055506115138130857f000000000000000000000000000000000000000000000000000000000000000073ffffffffffffffffffffffffffffffffffffffff16612172909392919063ffffffff16565b6040518060a001604052806001600281111561153257611531612ae9565b5b81526020016001600281111561154b5761154a612ae9565b5b81526020018481526020015f815260200160055481525060065f8473ffffffffffffffffffffffffffffffffffffffff1673ffffffffffffffffffffffffffffffffffffffff1681526020019081526020015f205f820151815f015f6101000a81548160ff021916908360028111156115c7576115c6612ae9565b5b02179055506020820151815f0160016101000a81548160ff021916908360028111156115f6576115f5612ae9565b5b02179055506040820151816001015560608201518160020155608082015181600301559050508073ffffffffffffffffffffffffffffffffffffffff168273ffffffffffffffffffffffffffffffffffffffff166005547f8b1ef8fc445a183993b885a6de212394581d2088d6025724d274efe72c3f2a928660405161167c91906128a2565b60405180910390a4505050565b60606004805461169890612c98565b80601f01602080910402602001604051908101604052809291908181526020018280546116c490612c98565b801561170f5780601f106116e65761010080835404028352916020019161170f565b820191905f5260205f20905b8154815290600101906020018083116116f257829003601f168201915b5050505050905090565b5f805f60065f8573ffffffffffffffffffffffffffffffffffffffff1673ffffffffffffffffffffffffffffffffffffffff1681526020019081526020015f206040518060a00160405290815f82015f9054906101000a900460ff16600281111561178757611786612ae9565b5b600281111561179957611798612ae9565b5b81526020015f820160019054906101000a900460ff1660028111156117c1576117c0612ae9565b5b60028111156117d3576117d2612ae9565b5b8152602001600182015481526020016002820154815260200160038201548152505090506001600281111561180b5761180a612ae9565b5b815f0151600281111561182157611820612ae9565b5b141580611856575060028081111561183c5761183b612ae9565b5b8160200151600281111561185357611852612ae9565b5b14155b15611867575f809250925050611877565b8060400151816060015192509250505b9250929050565b5f80611888611f83565b9050611895818585612082565b600191505092915050565b5f60075f8473ffffffffffffffffffffffffffffffffffffffff1673ffffffffffffffffffffffffffffffffffffffff1681526020019081526020015f205f8373ffffffffffffffffffffffffffffffffffffffff1673ffffffffffffffffffffffffffffffffffffffff1681526020019081526020015f205f9054906101000a900460ff16905092915050565b5f60015f8473ffffffffffffffffffffffffffffffffffffffff1673ffffffffffffffffffffffffffffffffffffffff1681526020019081526020015f205f8373ffffffffffffffffffffffffffffffffffffffff1673ffffffffffffffffffffffffffffffffffffffff1681526020019081526020015f2054905092915050565b7f000000000000000000000000000000000000000000000000000000000000000081565b5f805f60065f8573ffffffffffffffffffffffffffffffffffffffff1673ffffffffffffffffffffffffffffffffffffffff1681526020019081526020015f206040518060a00160405290815f82015f9054906101000a900460ff166002811115611a4257611a41612ae9565b5b6002811115611a5457611a53612ae9565b5b81526020015f820160019054906101000a900460ff166002811115611a7c57611a7b612ae9565b5b6002811115611a8e57611a8d612ae9565b5b815260200160018201548152602001600282015481526020016003820154815250509050600280811115611ac557611ac4612ae9565b5b815f01516002811115611adb57611ada612ae9565b5b141580611b105750600280811115611af657611af5612ae9565b5b81602001516002811115611b0d57611b0c612ae9565b5b14155b15611b21575f809250925050611b31565b8060400151816060015192509250505b9250929050565b808073ffffffffffffffffffffffffffffffffffffffff163373ffffffffffffffffffffffffffffffffffffffff1614158015611bf7575060075f8273ffffffffffffffffffffffffffffffffffffffff1673ffffffffffffffffffffffffffffffffffffffff1681526020019081526020015f205f3373ffffffffffffffffffffffffffffffffffffffff1673ffffffffffffffffffffffffffffffffffffffff1681526020019081526020015f205f9054906101000a900460ff16155b15611c2e576040517fb8c8b79e00000000000000000000000000000000000000000000000000000000815260040160405180910390fd5b5f60065f8473ffffffffffffffffffffffffffffffffffffffff1673ffffffffffffffffffffffffffffffffffffffff1681526020019081526020015f20905060016002811115611c8257611c81612ae9565b5b815f015f9054906101000a900460ff166002811115611ca457611ca3612ae9565b5b141580611ce55750600280811115611cbf57611cbe612ae9565b5b815f0160019054906101000a900460ff166002811115611ce257611ce1612ae9565b5b14155b15611d1c576040517f2efb6afd00000000000000000000000000000000000000000000000000000000815260040160405180910390fd5b5f816003015490505f8260020154905060065f8673ffffffffffffffffffffffffffffffffffffffff1673ffffffffffffffffffffffffffffffffffffffff1681526020019081526020015f205f8082015f6101000a81549060ff02191690555f820160016101000a81549060ff0219169055600182015f9055600282015f9055600382015f90555050611db086826121c7565b8573ffffffffffffffffffffffffffffffffffffffff168573ffffffffffffffffffffffffffffffffffffffff16837fd30e98a4c4a25e2901807aa7235cde2a5aa1ba978dcdfd75855c1841e0eb024984604051611e0e91906128a2565b60405180910390a4505050505050565b5f805f60065f8573ffffffffffffffffffffffffffffffffffffffff1673ffffffffffffffffffffffffffffffffffffffff1681526020019081526020015f206040518060a00160405290815f82015f9054906101000a900460ff166002811115611e8c57611e8b612ae9565b5b6002811115611e9e57611e9d612ae9565b5b81526020015f820160019054906101000a900460ff166002811115611ec657611ec5612ae9565b5b6002811115611ed857611ed7612ae9565b5b815260200160018201548152602001600282015481526020016003820154815250509050600280811115611f0f57611f0e612ae9565b5b815f01516002811115611f2557611f24612ae9565b5b141580611f5b575060016002811115611f4157611f40612ae9565b5b81602001516002811115611f5857611f57612ae9565b5b14155b15611f6c575f809250925050611f7c565b8060400151816060015192509250505b9250929050565b5f33905090565b611f978383836001612246565b505050565b611fa98383836001612415565b611fea57826040517f5274afe7000000000000000000000000000000000000000000000000000000008152600401611fe19190612c52565b60405180910390fd5b505050565b5f611ffa848461192e565b90507fffffffffffffffffffffffffffffffffffffffffffffffffffffffffffffffff81101561207c578181101561206d578281836040517ffb8f41b200000000000000000000000000000000000000000000000000000000815260040161206493929190612d3c565b60405180910390fd5b61207b84848484035f612246565b5b50505050565b5f73ffffffffffffffffffffffffffffffffffffffff168373ffffffffffffffffffffffffffffffffffffffff16036120f2575f6040517f96c6fd1e0000000000000000000000000000000000000000000000000000000081526004016120e99190612c52565b60405180910390fd5b5f73ffffffffffffffffffffffffffffffffffffffff168273ffffffffffffffffffffffffffffffffffffffff1603612162575f6040517fec442f050000000000000000000000000000000000000000000000000000000081526004016121599190612c52565b60405180910390fd5b61216d838383612477565b505050565b612180848484846001612690565b6121c157836040517f5274afe70000000000000000000000000000000000000000000000000000000081526004016121b89190612c52565b60405180910390fd5b50505050565b5f73ffffffffffffffffffffffffffffffffffffffff168273ffffffffffffffffffffffffffffffffffffffff1603612237575f6040517fec442f0500000000000000000000000000000000000000000000000000000000815260040161222e9190612c52565b60405180910390fd5b6122425f8383612477565b5050565b5f73ffffffffffffffffffffffffffffffffffffffff168473ffffffffffffffffffffffffffffffffffffffff16036122b6575f6040517fe602df050000000000000000000000000000000000000000000000000000000081526004016122ad9190612c52565b60405180910390fd5b5f73ffffffffffffffffffffffffffffffffffffffff168373ffffffffffffffffffffffffffffffffffffffff1603612326575f6040517f94280d6200000000000000000000000000000000000000000000000000000000815260040161231d9190612c52565b60405180910390fd5b8160015f8673ffffffffffffffffffffffffffffffffffffffff1673ffffffffffffffffffffffffffffffffffffffff1681526020019081526020015f205f8573ffffffffffffffffffffffffffffffffffffffff1673ffffffffffffffffffffffffffffffffffffffff1681526020019081526020015f2081905550801561240f578273ffffffffffffffffffffffffffffffffffffffff168473ffffffffffffffffffffffffffffffffffffffff167f8c5be1e5ebec7d5bd14f71427d1e84f3dd0314c0f7b2291e5b200ac8c7c3b9258460405161240691906128a2565b60405180910390a35b50505050565b5f8063a9059cbb60e01b9050604051815f525f1960601c86166004528460245260205f60445f808b5af1925060015f5114831661246957838315161561245d573d5f823e3d81fd5b5f873b113d1516831692505b806040525050949350505050565b5f73ffffffffffffffffffffffffffffffffffffffff168373ffffffffffffffffffffffffffffffffffffffff16036124c7578060025f8282546124bb9190612d71565b92505081905550612595565b5f805f8573ffffffffffffffffffffffffffffffffffffffff1673ffffffffffffffffffffffffffffffffffffffff1681526020019081526020015f2054905081811015612550578381836040517fe450d38c00000000000000000000000000000000000000000000000000000000815260040161254793929190612d3c565b60405180910390fd5b8181035f808673ffffffffffffffffffffffffffffffffffffffff1673ffffffffffffffffffffffffffffffffffffffff1681526020019081526020015f2081905550505b5f73ffffffffffffffffffffffffffffffffffffffff168273ffffffffffffffffffffffffffffffffffffffff16036125dc578060025f8282540392505081905550612626565b805f808473ffffffffffffffffffffffffffffffffffffffff1673ffffffffffffffffffffffffffffffffffffffff1681526020019081526020015f205f82825401925050819055505b8173ffffffffffffffffffffffffffffffffffffffff168373ffffffffffffffffffffffffffffffffffffffff167fddf252ad1be2c89b69c2b068fc378daa952ba7f163c4a11628f55a4df523b3ef8360405161268391906128a2565b60405180910390a3505050565b5f806323b872dd60e01b9050604051815f525f1960601c87166004525f1960601c86166024528460445260205f60645f808c5af1925060015f511483166126ee5783831516156126e2573d5f823e3d81fd5b5f883b113d1516831692505b806040525f606052505095945050505050565b5f81519050919050565b5f82825260208201905092915050565b8281835e5f83830152505050565b5f601f19601f8301169050919050565b5f61274382612701565b61274d818561270b565b935061275d81856020860161271b565b61276681612729565b840191505092915050565b5f6020820190508181035f8301526127898184612739565b905092915050565b5f80fd5b5f73ffffffffffffffffffffffffffffffffffffffff82169050919050565b5f6127be82612795565b9050919050565b6127ce816127b4565b81146127d8575f80fd5b50565b5f813590506127e9816127c5565b92915050565b5f819050919050565b612801816127ef565b811461280b575f80fd5b50565b5f8135905061281c816127f8565b92915050565b5f806040838503121561283857612837612791565b5b5f612845858286016127db565b92505060206128568582860161280e565b9150509250929050565b5f8115159050919050565b61287481612860565b82525050565b5f60208201905061288d5f83018461286b565b92915050565b61289c816127ef565b82525050565b5f6020820190506128b55f830184612893565b92915050565b5f80604083850312156128d1576128d0612791565b5b5f6128de858286016127db565b92505060206128ef858286016127db565b9150509250929050565b5f805f606084860312156129105761290f612791565b5b5f61291d868287016127db565b935050602061292e868287016127db565b925050604061293f8682870161280e565b9150509250925092565b5f806040838503121561295f5761295e612791565b5b5f61296c8582860161280e565b925050602061297d858286016127db565b9150509250929050565b5f60408201905061299a5f830185612893565b6129a76020830184612893565b9392505050565b5f60ff82169050919050565b6129c3816129ae565b82525050565b5f6020820190506129dc5f8301846129ba565b92915050565b5f819050919050565b5f612a05612a006129fb84612795565b6129e2565b612795565b9050919050565b5f612a16826129eb565b9050919050565b5f612a2782612a0c565b9050919050565b612a3781612a1d565b82525050565b5f602082019050612a505f830184612a2e565b92915050565b612a5f81612860565b8114612a69575f80fd5b50565b5f81359050612a7a81612a56565b92915050565b5f8060408385031215612a9657612a95612791565b5b5f612aa3858286016127db565b9250506020612ab485828601612a6c565b9150509250929050565b5f60208284031215612ad357612ad2612791565b5b5f612ae0848285016127db565b91505092915050565b7f4e487b71000000000000000000000000000000000000000000000000000000005f52602160045260245ffd5b60038110612b2757612b26612ae9565b5b50565b5f819050612b3782612b16565b919050565b5f612b4682612b2a565b9050919050565b612b5681612b3c565b82525050565b60038110612b6d57612b6c612ae9565b5b50565b5f819050612b7d82612b5c565b919050565b5f612b8c82612b70565b9050919050565b612b9c81612b82565b82525050565b5f60a082019050612bb55f830188612b4d565b612bc26020830187612b93565b612bcf6040830186612893565b612bdc6060830185612893565b612be96080830184612893565b9695505050505050565b5f805f60608486031215612c0a57612c09612791565b5b5f612c178682870161280e565b9350506020612c28868287016127db565b9250506040612c39868287016127db565b9150509250925092565b612c4c816127b4565b82525050565b5f602082019050612c655f830184612c43565b92915050565b7f4e487b71000000000000000000000000000000000000000000000000000000005f52602260045260245ffd5b5f6002820490506001821680612caf57607f821691505b602082108103612cc257612cc1612c6b565b5b50919050565b7f4e487b71000000000000000000000000000000000000000000000000000000005f52601160045260245ffd5b5f612cff826127ef565b91507fffffffffffffffffffffffffffffffffffffffffffffffffffffffffffffffff8203612d3157612d30612cc8565b5b600182019050919050565b5f606082019050612d4f5f830186612c43565b612d5c6020830185612893565b612d696040830184612893565b949350505050565b5f612d7b826127ef565b9150612d86836127ef565b9250828201905080821115612d9e57612d9d612cc8565b5b9291505056fea2646970667358221220f01220ce18d4ed0363f5b9072b2b96b0522aec8b6d4a3794ef6efeabbe89446664736f6c634300081a0033","linkReferences":{}},"methodIdentifiers":{"allowance(address,address)":"dd62ed3e","approve(address,uint256)":"095ea7b3","asset()":"38d52e0f","balanceOf(address)":"70a08231","claimDeposit(address,address)":"ee4757d7","claimRedeem(address,address)":"18292350","claimableDepositRequest(uint256,address)":"995ea21a","claimableRedeemRequest(uint256,address)":"eaed1d07","curator()":"e66f53b7","decimals()":"313ce567","fulfillDeposit(address,uint256)":"746cd26c","fulfillRedeem(address,uint256)":"36ac15ef","isOperator(address,address)":"b6363cf2","name()":"06fdde03","pendingDepositRequest(uint256,address)":"26c6f96c","pendingRedeemRequest(uint256,address)":"f5a23d8d","requestDeposit(uint256,address,address)":"85b77f45","requestRedeem(uint256,address,address)":"7d41c86e","requests(address)":"74adad1d","setOperator(address,bool)":"558a7297","symbol()":"95d89b41","totalSupply()":"18160ddd","transfer(address,uint256)":"a9059cbb","transferFrom(address,address,uint256)":"23b872dd"},"id":28}